{
  "contractName": "EdinarStaking",
  "abi": [
    {
      "inputs": [
        {
          "internalType": "contract IERC20",
          "name": "_edinarToken",
          "type": "address"
        },
        {
          "internalType": "uint256",
          "name": "_initialRewardRate",
          "type": "uint256"
        }
      ],
      "stateMutability": "nonpayable",
      "type": "constructor"
    },
    {
      "anonymous": false,
      "inputs": [
        {
          "indexed": true,
          "internalType": "address",
          "name": "previousOwner",
          "type": "address"
        },
        {
          "indexed": true,
          "internalType": "address",
          "name": "newOwner",
          "type": "address"
        }
      ],
      "name": "OwnershipTransferred",
      "type": "event"
    },
    {
      "anonymous": false,
      "inputs": [
        {
          "indexed": true,
          "internalType": "address",
          "name": "referrer",
          "type": "address"
        },
        {
          "indexed": true,
          "internalType": "address",
          "name": "referral",
          "type": "address"
        },
        {
          "indexed": false,
          "internalType": "uint256",
          "name": "amount",
          "type": "uint256"
        }
      ],
      "name": "ReferralRewardPaid",
      "type": "event"
    },
    {
      "anonymous": false,
      "inputs": [
        {
          "indexed": true,
          "internalType": "address",
          "name": "user",
          "type": "address"
        },
        {
          "indexed": false,
          "internalType": "uint256",
          "name": "amount",
          "type": "uint256"
        }
      ],
      "name": "RewardClaimed",
      "type": "event"
    },
    {
      "anonymous": false,
      "inputs": [
        {
          "indexed": false,
          "internalType": "uint256",
          "name": "newRate",
          "type": "uint256"
        }
      ],
      "name": "RewardRateUpdated",
      "type": "event"
    },
    {
      "anonymous": false,
      "inputs": [
        {
          "indexed": true,
          "internalType": "address",
          "name": "user",
          "type": "address"
        },
        {
          "indexed": false,
          "internalType": "uint256",
          "name": "amount",
          "type": "uint256"
        },
        {
          "indexed": true,
          "internalType": "address",
          "name": "referrer",
          "type": "address"
        }
      ],
      "name": "Staked",
      "type": "event"
    },
    {
      "anonymous": false,
      "inputs": [
        {
          "indexed": true,
          "internalType": "address",
          "name": "user",
          "type": "address"
        },
        {
          "indexed": false,
          "internalType": "uint256",
          "name": "amount",
          "type": "uint256"
        }
      ],
      "name": "Withdrawn",
      "type": "event"
    },
    {
      "inputs": [],
      "name": "REWARD_PRECISION",
      "outputs": [
        {
          "internalType": "uint256",
          "name": "",
          "type": "uint256"
        }
      ],
      "stateMutability": "view",
      "type": "function",
      "constant": true
    },
    {
      "inputs": [],
      "name": "edinarToken",
      "outputs": [
        {
          "internalType": "contract IERC20",
          "name": "",
          "type": "address"
        }
      ],
      "stateMutability": "view",
      "type": "function",
      "constant": true
    },
    {
      "inputs": [
        {
          "internalType": "address",
          "name": "",
          "type": "address"
        }
      ],
      "name": "lastClaimTime",
      "outputs": [
        {
          "internalType": "uint256",
          "name": "",
          "type": "uint256"
        }
      ],
      "stateMutability": "view",
      "type": "function",
      "constant": true
    },
    {
      "inputs": [],
      "name": "owner",
      "outputs": [
        {
          "internalType": "address",
          "name": "",
          "type": "address"
        }
      ],
      "stateMutability": "view",
      "type": "function",
      "constant": true
    },
    {
      "inputs": [
        {
          "internalType": "address",
          "name": "",
          "type": "address"
        }
      ],
      "name": "referralCount",
      "outputs": [
        {
          "internalType": "uint256",
          "name": "",
          "type": "uint256"
        }
      ],
      "stateMutability": "view",
      "type": "function",
      "constant": true
    },
    {
      "inputs": [],
      "name": "referralPercentage",
      "outputs": [
        {
          "internalType": "uint256",
          "name": "",
          "type": "uint256"
        }
      ],
      "stateMutability": "view",
      "type": "function",
      "constant": true
    },
    {
      "inputs": [
        {
          "internalType": "address",
          "name": "",
          "type": "address"
        }
      ],
      "name": "referralRewards",
      "outputs": [
        {
          "internalType": "uint256",
          "name": "",
          "type": "uint256"
        }
      ],
      "stateMutability": "view",
      "type": "function",
      "constant": true
    },
    {
      "inputs": [
        {
          "internalType": "address",
          "name": "",
          "type": "address"
        }
      ],
      "name": "referrers",
      "outputs": [
        {
          "internalType": "address",
          "name": "",
          "type": "address"
        }
      ],
      "stateMutability": "view",
      "type": "function",
      "constant": true
    },
    {
      "inputs": [],
      "name": "renounceOwnership",
      "outputs": [],
      "stateMutability": "nonpayable",
      "type": "function"
    },
    {
      "inputs": [],
      "name": "rewardRate",
      "outputs": [
        {
          "internalType": "uint256",
          "name": "",
          "type": "uint256"
        }
      ],
      "stateMutability": "view",
      "type": "function",
      "constant": true
    },
    {
      "inputs": [
        {
          "internalType": "address",
          "name": "",
          "type": "address"
        }
      ],
      "name": "rewards",
      "outputs": [
        {
          "internalType": "uint256",
          "name": "",
          "type": "uint256"
        }
      ],
      "stateMutability": "view",
      "type": "function",
      "constant": true
    },
    {
      "inputs": [
        {
          "internalType": "address",
          "name": "",
          "type": "address"
        }
      ],
      "name": "stakedBalance",
      "outputs": [
        {
          "internalType": "uint256",
          "name": "",
          "type": "uint256"
        }
      ],
      "stateMutability": "view",
      "type": "function",
      "constant": true
    },
    {
      "inputs": [],
      "name": "totalStaked",
      "outputs": [
        {
          "internalType": "uint256",
          "name": "",
          "type": "uint256"
        }
      ],
      "stateMutability": "view",
      "type": "function",
      "constant": true
    },
    {
      "inputs": [
        {
          "internalType": "address",
          "name": "newOwner",
          "type": "address"
        }
      ],
      "name": "transferOwnership",
      "outputs": [],
      "stateMutability": "nonpayable",
      "type": "function"
    },
    {
      "inputs": [
        {
          "internalType": "uint256",
          "name": "amount",
          "type": "uint256"
        },
        {
          "internalType": "address",
          "name": "referrer",
          "type": "address"
        }
      ],
      "name": "stake",
      "outputs": [],
      "stateMutability": "nonpayable",
      "type": "function"
    },
    {
      "inputs": [
        {
          "internalType": "uint256",
          "name": "amount",
          "type": "uint256"
        }
      ],
      "name": "withdraw",
      "outputs": [],
      "stateMutability": "nonpayable",
      "type": "function"
    },
    {
      "inputs": [],
      "name": "claimRewards",
      "outputs": [],
      "stateMutability": "nonpayable",
      "type": "function"
    },
    {
      "inputs": [
        {
          "internalType": "address",
          "name": "user",
          "type": "address"
        }
      ],
      "name": "getPendingRewards",
      "outputs": [
        {
          "internalType": "uint256",
          "name": "",
          "type": "uint256"
        }
      ],
      "stateMutability": "view",
      "type": "function",
      "constant": true
    },
    {
      "inputs": [
        {
          "internalType": "uint256",
          "name": "newRate",
          "type": "uint256"
        }
      ],
      "name": "setRewardRate",
      "outputs": [],
      "stateMutability": "nonpayable",
      "type": "function"
    },
    {
      "inputs": [
        {
          "internalType": "uint256",
          "name": "newPercentage",
          "type": "uint256"
        }
      ],
      "name": "setReferralPercentage",
      "outputs": [],
      "stateMutability": "nonpayable",
      "type": "function"
    }
  ],
  "bytecode": "0x60a06040526001600a5534801561001557600080fd5b506040516110ae3803806110ae833981016040819052610034916100a7565b61003d33610057565b600180556001600160a01b039091166080526003556100e1565b600080546001600160a01b038381166001600160a01b0319831681178455604051919092169283917f8be0079c531659141344cd1fd0a4f28419497f9722a3daafe3b4186f6b6457e09190a35050565b600080604083850312156100ba57600080fd5b82516001600160a01b03811681146100d157600080fd5b6020939093015192949293505050565b608051610f966101186000396000818161024301528181610415015281816105e20152818161070501526109300152610f966000f3fe608060405234801561001057600080fd5b506004361061012c5760003560e01c8063817b1cd2116100ad578063a0311bd411610071578063a0311bd414610292578063b77cf9c6146102a5578063db74559b146102c5578063f2fde38b146102e5578063f6ed2017146102f857600080fd5b8063817b1cd21461023557806386d028311461023e5780638da5cb5b1461026557806396ea8b9c146102765780639e447fc61461027f57600080fd5b806353aaa63b116100f457806353aaa63b146101d157806360217267146101f1578063715018a6146102115780637acb7757146102195780637b0a47ee1461022c57600080fd5b80630700037d146101315780632e1a7d4d14610164578063372500ab146101795780633d6aa5e1146101815780634a3b68cc14610190575b600080fd5b61015161013f366004610e21565b60056020526000908152604090205481565b6040519081526020015b60405180910390f35b610177610172366004610e3c565b61030b565b005b6101776104e7565b610151670de0b6b3a764000081565b6101b961019e366004610e21565b6007602052600090815260409020546001600160a01b031681565b6040516001600160a01b03909116815260200161015b565b6101516101df366004610e21565b60096020526000908152604090205481565b6101516101ff366004610e21565b60046020526000908152604090205481565b6101776107d8565b610177610227366004610e55565b6107ea565b61015160035481565b61015160025481565b6101b97f000000000000000000000000000000000000000000000000000000000000000081565b6000546001600160a01b03166101b9565b610151600a5481565b61017761028d366004610e3c565b610a0e565b6101776102a0366004610e3c565b610a90565b6101516102b3366004610e21565b60066020526000908152604090205481565b6101516102d3366004610e21565b60086020526000908152604090205481565b6101776102f3366004610e21565b610ad8565b610151610306366004610e21565b610b4e565b610313610c0a565b6000811161035d5760405162461bcd60e51b81526020600482015260126024820152710416d6f756e74206d757374206265203e20360741b60448201526064015b60405180910390fd5b336000908152600460205260409020548111156103b35760405162461bcd60e51b8152602060048201526014602482015273496e73756666696369656e742062616c616e636560601b6044820152606401610354565b6103bc33610c63565b33600090815260046020526040812080548392906103db908490610e97565b9250508190555080600260008282546103f49190610e97565b909155505060405163a9059cbb60e01b8152336004820152602481018290527f00000000000000000000000000000000000000000000000000000000000000006001600160a01b03169063a9059cbb906044016020604051808303816000875af1158015610466573d6000803e3d6000fd5b505050506040513d601f19601f8201168201806040525081019061048a9190610eb0565b6104a65760405162461bcd60e51b815260040161035490610ed2565b60405181815233907f7084f5476618d8e60b11ef0d7d3f06914655adb8793e28ff7f018d4c76d505d59060200160405180910390a26104e460018055565b50565b6104ef610c0a565b6104f833610c63565b33600090815260056020526040902054806105425760405162461bcd60e51b815260206004820152600a6024820152694e6f207265776172647360b01b6044820152606401610354565b33600090815260056020908152604080832083905560079091529020546001600160a01b031680156106e95760006064600a54846105809190610efb565b61058a9190610f12565b6001600160a01b0383166000908152600960205260408120805492935083929091906105b7908490610f34565b909155505060405163a9059cbb60e01b81526001600160a01b038381166004830152602482018390527f0000000000000000000000000000000000000000000000000000000000000000169063a9059cbb906044016020604051808303816000875af115801561062b573d6000803e3d6000fd5b505050506040513d601f19601f8201168201806040525081019061064f9190610eb0565b61069b5760405162461bcd60e51b815260206004820152601860248201527f526566657272616c207472616e73666572206661696c656400000000000000006044820152606401610354565b60405181815233906001600160a01b038416907f94ccb86446750660ec532b1beb1fb55f5ba2fffca042c4c53f4c080e72595b389060200160405180910390a36106e58184610e97565b9250505b60405163a9059cbb60e01b8152336004820152602481018390527f00000000000000000000000000000000000000000000000000000000000000006001600160a01b03169063a9059cbb906044016020604051808303816000875af1158015610756573d6000803e3d6000fd5b505050506040513d601f19601f8201168201806040525081019061077a9190610eb0565b6107965760405162461bcd60e51b815260040161035490610ed2565b60405182815233907f106f923f993c2149d49b4255ff723acafa1f2d94393f561d3eda32ae348f72419060200160405180910390a250506107d660018055565b565b6107e0610d5b565b6107d66000610db5565b6107f2610c0a565b600082116108375760405162461bcd60e51b81526020600482015260126024820152710416d6f756e74206d757374206265203e20360741b6044820152606401610354565b61084033610c63565b6001600160a01b0381161580159061086157506001600160a01b0381163314155b80156108835750336000908152600760205260409020546001600160a01b0316155b156108d15733600090815260076020908152604080832080546001600160a01b0319166001600160a01b0386169081179091558352600890915281208054916108cb83610f47565b91905055505b33600090815260046020526040812080548492906108f0908490610f34565b9250508190555081600260008282546109099190610f34565b90915550506040516323b872dd60e01b8152336004820152306024820152604481018390527f00000000000000000000000000000000000000000000000000000000000000006001600160a01b0316906323b872dd906064016020604051808303816000875af1158015610981573d6000803e3d6000fd5b505050506040513d601f19601f820116820180604052508101906109a59190610eb0565b6109c15760405162461bcd60e51b815260040161035490610ed2565b6040518281526001600160a01b0382169033907f9f9e4044c5742cca66ca090b21552bac14645e68bad7a92364a9d9ff18111a1c9060200160405180910390a3610a0a60018055565b5050565b610a16610d5b565b60008111610a555760405162461bcd60e51b815260206004820152600c60248201526b496e76616c6964207261746560a01b6044820152606401610354565b60038190556040518181527f41d466ebd06fb97e7786086ac8b69b7eb7da798592036251291d34e9791cde019060200160405180910390a150565b610a98610d5b565b6014811115610ad35760405162461bcd60e51b81526020600482015260076024820152664d61782032302560c81b6044820152606401610354565b600a55565b610ae0610d5b565b6001600160a01b038116610b455760405162461bcd60e51b815260206004820152602660248201527f4f776e61626c653a206e6577206f776e657220697320746865207a65726f206160448201526564647265737360d01b6064820152608401610354565b6104e481610db5565b6001600160a01b0381166000908152600460205260408120548103610b7557506000919050565b6001600160a01b038216600090815260066020526040812054610b989042610e97565b6003546001600160a01b038516600090815260046020526040902054919250670de0b6b3a764000091610bcc908490610efb565b610bd69190610efb565b610be09190610f12565b6001600160a01b038416600090815260056020526040902054610c039190610f34565b9392505050565b600260015403610c5c5760405162461bcd60e51b815260206004820152601f60248201527f5265656e7472616e637947756172643a207265656e7472616e742063616c6c006044820152606401610354565b6002600155565b6001600160a01b0381166000908152600460205260408120549003610c9e576001600160a01b03166000908152600660205260409020429055565b6001600160a01b038116600090815260066020526040812054610cc19042610e97565b6003546001600160a01b03841660009081526004602052604081205492935091670de0b6b3a76400009190610cf7908590610efb565b610d019190610efb565b610d0b9190610f12565b6001600160a01b038416600090815260056020526040812080549293508392909190610d38908490610f34565b909155505050506001600160a01b03166000908152600660205260409020429055565b6000546001600160a01b031633146107d65760405162461bcd60e51b815260206004820181905260248201527f4f776e61626c653a2063616c6c6572206973206e6f7420746865206f776e65726044820152606401610354565b600080546001600160a01b038381166001600160a01b0319831681178455604051919092169283917f8be0079c531659141344cd1fd0a4f28419497f9722a3daafe3b4186f6b6457e09190a35050565b80356001600160a01b0381168114610e1c57600080fd5b919050565b600060208284031215610e3357600080fd5b610c0382610e05565b600060208284031215610e4e57600080fd5b5035919050565b60008060408385031215610e6857600080fd5b82359150610e7860208401610e05565b90509250929050565b634e487b7160e01b600052601160045260246000fd5b81810381811115610eaa57610eaa610e81565b92915050565b600060208284031215610ec257600080fd5b81518015158114610c0357600080fd5b6020808252600f908201526e151c985b9cd9995c8819985a5b1959608a1b604082015260600190565b8082028115828204841417610eaa57610eaa610e81565b600082610f2f57634e487b7160e01b600052601260045260246000fd5b500490565b80820180821115610eaa57610eaa610e81565b600060018201610f5957610f59610e81565b506001019056fea2646970667358221220e1a0452ecbfee8e22508d8b076603957e46d1126c37bb02bed7467e87a50602c64736f6c63430008120033",
  "immutableReferences": {
    "909": [
      {
        "length": 32,
        "start": 579
      },
      {
        "length": 32,
        "start": 1045
      },
      {
        "length": 32,
        "start": 1506
      },
      {
        "length": 32,
        "start": 1797
      },
      {
        "length": 32,
        "start": 2352
      }
    ]
  },
  "source": "// SPDX-License-Identifier: MIT\r\npragma solidity ^0.8.18;\r\n\r\nimport \"@openzeppelin/contracts/token/ERC20/IERC20.sol\";\r\nimport \"@openzeppelin/contracts/access/Ownable.sol\";\r\nimport \"@openzeppelin/contracts/security/ReentrancyGuard.sol\";\r\n\r\ncontract EdinarStaking is Ownable, ReentrancyGuard {\r\n    IERC20 public immutable edinarToken;\r\n    \r\n    uint256 public totalStaked;\r\n    uint256 public rewardRate; // EDINAR per second per staked token\r\n    uint256 public constant REWARD_PRECISION = 1e18;\r\n    \r\n    mapping(address => uint256) public stakedBalance;\r\n    mapping(address => uint256) public rewards;\r\n    mapping(address => uint256) public lastClaimTime;\r\n    \r\n    // Referral system\r\n    mapping(address => address) public referrers;\r\n    mapping(address => uint256) public referralCount;\r\n    mapping(address => uint256) public referralRewards;\r\n    uint256 public referralPercentage = 1; // Updated to 1%\r\n    \r\n    event Staked(address indexed user, uint256 amount, address indexed referrer);\r\n    event Withdrawn(address indexed user, uint256 amount);\r\n    event RewardClaimed(address indexed user, uint256 amount);\r\n    event ReferralRewardPaid(address indexed referrer, address indexed referral, uint256 amount);\r\n    event RewardRateUpdated(uint256 newRate);\r\n\r\n    constructor(IERC20 _edinarToken, uint256 _initialRewardRate) {\r\n        edinarToken = _edinarToken;\r\n        rewardRate = _initialRewardRate;\r\n    }\r\n\r\n    function stake(uint256 amount, address referrer) external nonReentrant {\r\n        require(amount > 0, \"Amount must be > 0\");\r\n        \r\n        _updateRewards(msg.sender);\r\n        \r\n        // Set referrer if not already set and valid\r\n        if (referrer != address(0) && referrer != msg.sender && referrers[msg.sender] == address(0)) {\r\n            referrers[msg.sender] = referrer;\r\n            referralCount[referrer]++;\r\n        }\r\n        \r\n        stakedBalance[msg.sender] += amount;\r\n        totalStaked += amount;\r\n        \r\n        require(edinarToken.transferFrom(msg.sender, address(this), amount), \"Transfer failed\");\r\n        emit Staked(msg.sender, amount, referrer);\r\n    }\r\n\r\n    function withdraw(uint256 amount) external nonReentrant {\r\n        require(amount > 0, \"Amount must be > 0\");\r\n        require(stakedBalance[msg.sender] >= amount, \"Insufficient balance\");\r\n        \r\n        _updateRewards(msg.sender);\r\n        stakedBalance[msg.sender] -= amount;\r\n        totalStaked -= amount;\r\n        \r\n        require(edinarToken.transfer(msg.sender, amount), \"Transfer failed\");\r\n        emit Withdrawn(msg.sender, amount);\r\n    }\r\n\r\n    function claimRewards() external nonReentrant {\r\n        _updateRewards(msg.sender);\r\n        uint256 reward = rewards[msg.sender];\r\n        require(reward > 0, \"No rewards\");\r\n        \r\n        rewards[msg.sender] = 0;\r\n        \r\n        // Pay referral rewards if applicable\r\n        address referrer = referrers[msg.sender];\r\n        if (referrer != address(0)) {\r\n            uint256 referralAmount = (reward * referralPercentage) / 100;\r\n            referralRewards[referrer] += referralAmount;\r\n            require(edinarToken.transfer(referrer, referralAmount), \"Referral transfer failed\");\r\n            emit ReferralRewardPaid(referrer, msg.sender, referralAmount);\r\n            reward -= referralAmount;\r\n        }\r\n        \r\n        require(edinarToken.transfer(msg.sender, reward), \"Transfer failed\");\r\n        emit RewardClaimed(msg.sender, reward);\r\n    }\r\n\r\n    function _updateRewards(address user) internal {\r\n        if (stakedBalance[user] == 0) {\r\n            lastClaimTime[user] = block.timestamp;\r\n            return;\r\n        }\r\n        \r\n        uint256 timePassed = block.timestamp - lastClaimTime[user];\r\n        uint256 newRewards = (stakedBalance[user] * timePassed * rewardRate) / REWARD_PRECISION;\r\n        \r\n        rewards[user] += newRewards;\r\n        lastClaimTime[user] = block.timestamp;\r\n    }\r\n\r\n    function getPendingRewards(address user) external view returns (uint256) {\r\n        if (stakedBalance[user] == 0) return 0;\r\n        \r\n        uint256 timePassed = block.timestamp - lastClaimTime[user];\r\n        return rewards[user] + (stakedBalance[user] * timePassed * rewardRate) / REWARD_PRECISION;\r\n    }\r\n\r\n    function setRewardRate(uint256 newRate) external onlyOwner {\r\n        require(newRate > 0, \"Invalid rate\");\r\n        rewardRate = newRate;\r\n        emit RewardRateUpdated(newRate);\r\n    }\r\n    \r\n    function setReferralPercentage(uint256 newPercentage) external onlyOwner {\r\n        require(newPercentage <= 20, \"Max 20%\");\r\n        referralPercentage = newPercentage;\r\n    }\r\n}",
  "sourcePath": "C:\\Users\\LPT-ZAMRY\\sys-stakingproject-2\\contracts\\EdinarStaking.sol",
  "compiler": {
    "name": "solc",
    "version": "0.8.18+commit.87f61d96.Emscripten.clang"
  },
  "schemaVersion": "3.4.16",
  "updatedAt": "2025-08-03T02:49:45.709Z",
  "networkType": "ethereum",
  "devdoc": {
    "kind": "dev",
    "methods": {
      "owner()": {
        "details": "Returns the address of the current owner."
      },
      "renounceOwnership()": {
        "details": "Leaves the contract without owner. It will not be possible to call `onlyOwner` functions. Can only be called by the current owner. NOTE: Renouncing ownership will leave the contract without an owner, thereby disabling any functionality that is only available to the owner."
      },
      "transferOwnership(address)": {
        "details": "Transfers ownership of the contract to a new account (`newOwner`). Can only be called by the current owner."
      }
    },
    "version": 1
  },
  "userdoc": {
    "kind": "user",
    "methods": {},
    "version": 1
  }
}